:020000040000FA
:040000002FEF04F0EA
:1008000000004AEC04F0000E936E20EE14F010EE9F
:1008100003F00F0EDBCFE3FFE806FCE2000E136EE1
:100820001350030FD96EDA6ADF50816E132A0B0E54
:10083000026E260E016E5E0EE82EFED7012EFCD74C
:10084000022EFAD7100E1318D8A429EF04F02BEFBC
:1008500004F010EF04F00EEF04F000EF00F0840E4F
:10086000F66E080EF76E000EF86E00EE14F010EE45
:1008700010F00900F5CFEEFFE550E150FAE100017C
:1008800001EF04F03F065B4F666D7D077F67777C65
:10089000395E7971700ED312D350FC0B0209D36EFE
:0208A000120044
:020000040020DA
:08000000FFFFFFFFFFFFFFFF00
:020000040030CA
:0E00000000081F1EFF8181FF0FC00FE00F40A0
:00000001FF
