:1000000016EF00F00000000000EF00F0000000001C
:0A0010000000000000000000F3D71C
:10001C000900F5CFE6FF0006FBE10106F9E112004D
:10002C0045EC00F00F0EC16E070EB46E936A160EFF
:10003C00E96E000EEA6E1550E926D8B0EA2AEECF2A
:10004C0081FF152A030E0B6E8A0E0C6E550E0D6E6B
:10005C000D2EFED70C2EFCD70B2EFAD7000000006D
:0C006C001550100AD8B4156AE2D7FFD76F
:10008A0010EE15F0110E006E010E016E780EF66E6E
:0E009A00000EF76E000EF86E0EEC00F0120075
:010078000087
:100079003F065B4F666D7D077F67777C395E7971D7
:020000040030CA
:0E000000008B1F1EFF8381FF0FC00FE00F401B
:00000001FF
