:1000000016EF00F00000000000EF00F0000000001C
:0A0010000000000000000000F3D71C
:10001C000900F5CFE6FF0006FBE10106F9E112004D
:10002C0047EC00F00F0EC16E070EB46E720ED36E5D
:10003C00936A160EE96E000EEA6E1550E926D8B0DA
:10004C00EA2AEECF81FF152A0B0E0B6E260E0C6ED4
:10005C005D0E0D6E0D2EFED70C2EFCD70B2EFAD787
:10006C00000000001550100AD8B4156AE2D7FFD76B
:10008E0010EE15F0110E006E010E016E7C0EF66E66
:0E009E00000EF76E000EF86E0EEC00F0120071
:01007C000083
:10007D003F065B4F666D7D077F67777C395E7971D3
:020000040030CA
:0E00000000881F1EFF8381FF0FC00FE00F401E
:00000001FF
