:020000040000FA
:0400000018EF00F005
:020004000000FA
:1000200071795E397C776F7F077D6D664F5B063F28
:10003000000E926E000E936E720ED36E840ED56E0D
:10004000C26A0F0EC16E070EB46E30EF00F0850E5F
:10005000D76EEE0ED66EF2A42BEF00F0F294000CE9
:10006000000EF76E200E206E20C0F6FF0800F5CFC0
:1000700081FF40EC00F0202A27EC00F034EF00F084
:0E008000300E205C216E1F0E214A206E1200F1
:020000040030CA
:0100000020DF
:010001000BF3
:0100020038C5
:010003001EDE
:010005008179
:010006008178
:010008000FE8
:010009008076
:01000A000FE6
:01000B00A054
:01000C000FE4
:01000D0040B2
:00000001FF
