:10000000F5EF00F00000000000EF00F0000000003D
:0A0010000000000000000000F3D71C
:10001C000F0E0C6E470E0D6E0D2EFED70C2EFCD750
:06002C00000000001200BC
:06003200000000001200B6
:0A003800210E0D6E0D2EFED71200F2
:100042004CBE02D0819A01D0818A4CBC02D08198E8
:1000520001D081884CBA02D0819601D081864CB8F9
:1000620002D0819401D0818443B002D0818001D03A
:1000720081908182DDDF81924CB602D0819A01D0DB
:10008200818A4CB402D0819801D081884CB202D0CE
:10009200819601D081864CB002D0819401D08184B6
:1000A20043B002D0818001D081908182C1DF8192F0
:0C00B20043A002D0B2DF01D0BEDF12007C
:0C00BE0043904BC04CF0BEDF43801200AA
:1000CA000900F5CFE6FF0006FBE10106F9E112009F
:1000DA0093929390939493969398939A8192819002
:1000EA00819A81988196819494DF93DF92DF818649
:1000FA008184818299DF81928CDF818295DF81926E
:10010A0088DF818291DF819284DF819481828CDF12
:10011A0081927FDF818288DF81928196818A8182C2
:10012A0083DF819276DF819A818481827DDF819269
:10013A008194818279DF81926CDF818275DF81927D
:10014A008184818271DF819264DF819481826CDF94
:10015A008192818A818881868184818265DF819208
:06016A0058DF4380120083
:100170000FD0800E466E19D0C00E466E16D0940E6B
:10018000466E13D0D40E466E10D0800E466E0DD043
:100190004650010AEEE04650020AEEE04650030ADD
:1001A000EEE04650040AEEE0F0D74704006E4650F9
:1001B000002600C046F000C04CF043DF43904A6A7E
:1001C0004A504824E96E000E4920EA6EEE520BE0D8
:1001D0004A504824E96E000E4920EA6EEECF4BF0FB
:0A01E0006EDF4A2AEDD743801200BB
:1001EA0024EC01F0956A936AC26A0F0EC16E070E7B
:1001FA00B46E720ED36E6CDF0C0E4C6E1DDF010EE8
:10020A00466E040E476E250E486E000E496EABDF31
:02021A00FFD70C
:1002480010EE15F02C0E006E010E016E1C0EF66EEF
:0E025800020EF76E000EF86E65EC00F012005C
:08021C004100450044004200CE
:080224004500440042004100C6
:0C022C0049504E2D5550494943534100A4
:080238004400420041004500B2
:080240004200410045004400AA
:020000040030CA
:0E00000000081F1EFF8381FF0FC00FE00F409E
:00000001FF
