:020000040000FA
:10000000926AFF0E926E936A946A956A966AC26AC1
:100010000F0EC16E070EB46E19EF00F0F9263F0CFB
:10002000060C5B0C4F0C660C6D0C7D0C070C7F0CEA
:10003000670C000E0C6E0C500EEC00F0816E80A26E
:10004000FED73AEC00F080A2FAD72AEC00F080B29A
:10005000FED7F5D70C501208D8A401D003D00C2A33
:100060000C2A02D0000E0C6E0C500EEC00F0816ECB
:1000700000D01200140E0F6EF20E0E6E00000E2E47
:0A008000FDD70F2E3CEF00F0120038
:02008A00000074
:020000040030CA
:0100000020DF
:0100010008F6
:0100020038C5
:010003001EDE
:010005008179
:010006008178
:010008000FE8
:010009008076
:01000A000FE6
:01000B00A054
:01000C000FE4
:01000D0040B2
:00000001FF
