:020000040000FA
:10000000926A936A010E946E956A966AC26A0F0E9E
:10001000C16E070EB46E0BD0F9263F0C060C5B0CBC
:100020004F0C660C6D0C7D0C070C7F0C670C000EE2
:100030000C6E0D6E0C500CEC00F0816E0D500CEC43
:1000400000F0806E82A0FED74BEC00F082A0FAD7C1
:100050002DEC00F082B0FED7F5D70C501208D8A4D2
:1000600005D00D501208D8A404D008D00C2A0C2AB0
:1000700008D0000E0C6E0D2A0D2A03D0000E0C6E57
:100080000D6E0C500CEC00F0816E0D500CEC00F07D
:10009000806E00D01200140E0F6EF20E0E6E000075
:0C00A0000E2EFDD70F2E4DEF00F01200C9
:0200AC00000052
:020000040030CA
:0100000020DF
:0100010008F6
:0100020038C5
:010003001EDE
:010005008179
:010006008178
:010008000FE8
:010009008076
:01000A000FE6
:01000B00A054
:01000C000FE4
:01000D0040B2
:00000001FF
