:020000040000FA
:10000000926A936A946A956A966AC26A0F0EC16E82
:10001000070EB46EFF0E926E000E936E61EF00F04D
:10002000E80E0C6EF20E0B6E00000B2EFDD70C2EA0
:10003000F9D71200F9263F0C060C5B0C4F0C660C2E
:100040006D0C7D0C070C7F0C670C770C7C0C390C4D
:100050005E0C790C710C0A6A0A501AEC00F0816E81
:1000600014EC00F00A2A0A2A0A501408D8A42CEF2B
:1000700000F061EF00F00A6A0A501AEC00F0816E9D
:1000800014EC00F00A2A0A2A0A2A0A2A0A5020082E
:10009000D8A43CEF00F068EF00F00A6A0A501AECAE
:1000A00000F0816E14EC00F00A2A0A2A0A501008A7
:1000B000D8A44EEF00F06FEF00F0000E816E76EFE7
:1000C00000F080500008D8A468EF00F02BEF00F09B
:1000D00080500108D8A46FEF00F03BEF00F0805093
:1000E0000208D8A476EF00F04DEF00F0805003082E
:0A00F000D8A461EF00F05DEF00F00E
:0200FA00000004
:020000040030CA
:0100000020DF
:0100010008F6
:0100020038C5
:010003001EDE
:010005008179
:010006008178
:010008000FE8
:010009008076
:01000A000FE6
:01000B00A054
:01000C000FE4
:01000D0040B2
:00000001FF
