:020000040000FA
:10000000926A936A946A956A966AC26A0F0EC16E82
:10001000070EB46EFF0E926E000E936E0A6A2EEFFC
:1000200000F0F9263F0C060C5B0C4F0C660C6D0CB7
:100030007D0C070C7F0C670C770C7C0C390C5E0C6C
:10004000790C710CE80E0C6E680E0B6E00000B2E16
:1000500026EF00F00C2E24EF00F0120080B233EFF8
:1000600000F038EF00F080B070EF00F05FEF00F0CC
:1000700080B04DEF00F03DEF00F00A6A0A5011EC3D
:1000800000F0816E26EC00F00A2A0A2A0A501408B1
:10009000D8A43EEF00F02EEF00F00A6A0A5011ECEF
:1000A00000F0816E26EC00F00A2A0A2A0A2A0A2A9F
:1000B0000A502008D8A44EEF00F02EEF00F00E0EEC
:1000C0000A6E0A5011EC00F0816E26EC00F00A0670
:1000D0000A060A50FE08D8A461EF00F02EEF00F0E7
:0800E0003F0E816E2EEF00F0CF
:0200E800000016
:020000040030CA
:0100000020DF
:0100010008F6
:0100020038C5
:010003001EDE
:010005008179
:010006008178
:010008000FE8
:010009008076
:01000A000FE6
:01000B00A054
:01000C000FE4
:01000D0040B2
:00000001FF
