:100000002FEF03F00000000000EF00F00000000000
:0A0010000000000000000000F3D71C
:0A001C00210E0D6E0D2EFED712000E
:100026000F0E0C6E470E0D6E0D2EFED70C2EFCD746
:06003600000000001200B2
:06003C00000000001200AC
:10004200010125BF02D0839A01D0838A25BD02D047
:10005200839801D0838825BB02D0839601D0838602
:1000620025B902D0839401D0838414B102D0838055
:1000720001D083908382E1DF839225B702D0839AF5
:1000820001D0838A25B502D0839801D0838825B315
:1000920002D0839601D0838625B102D0839401D009
:1000A200838414B102D0838001D083908382C5DF20
:0E00B200839214A102D0B6DF01D0AFDF12009E
:0E00C0000101149122C125F1BCDF1481120050
:1000CE0010D0800E0101226F1AD0C00E226F17D0F1
:1000DE00940E226F14D0D40E226F11D0800E226F88
:1000EE000ED001012251010AECE02251020AEDE08C
:1000FE002251030AEDE02251040AEDE0EFD7230569
:10010E00006E2251002600C022F1148100C025F19C
:0E011E0091DF149124C125F18DDF14811200B0
:10012C00080E0101205D25E220C100F00036009090
:10013C0000360090003600900050400F256F7BDF9A
:10014C00216B080E215D0BE221511E25E96E000E7C
:10015C001F21EA6EEECF22F1ADDF212BF2D7020E7A
:10016C00256F69DF1CC122F11DC123F120C124F1CF
:04017C00A8DF1200E6
:10018000010E01011C6F17C11DF13D0E1E6F000E07
:100190001F6F206BCBDF010E1C6F1751010F1D6FFE
:1001A000450E1E6F000E1F6F010E206FBFDF010E88
:1001B0001C6F020E17251D6F900E1E6F000E1F6F15
:1001C000020E206FB3DF010E1C6F030E17251D6F8B
:1001D000CA0E1E6F000E1F6F030E206FA7DF020EE8
:1001E0001C6F17C11DF1D20E1E6F000E1F6F040E83
:1001F000206F9CDF020E1C6F1751010F1D6FBA0E8E
:100200001E6F000E1F6F050E206F90DF020E1C6F19
:10021000020E17251D6FC20E1E6F000E1F6F060EF9
:10022000206F84DF020E1C6F030E17251D6FDA0E80
:0E0230001E6F000E1F6F070E206F78DF12008A
:10023E00010E01011C6F17C11DF1860E1E6F000EFF
:10024E001F6F206B6CDF010E1C6F1751010F1D6F9E
:10025E00250E1E6F000E1F6F010E206F60DF010E48
:10026E001C6F020E17251D6F2D0E1E6F000E1F6FB9
:10027E00020E206F54DF010E1C6F030E17251D6F2B
:10028E00150E1E6F000E1F6F030E206F48DF020E3D
:10029E001C6F17C11DF11D0E1E6F000E1F6F040E79
:1002AE00206F3DDF020E1C6F1751010F1D6F350EB3
:1002BE001E6F000E1F6F050E206F31DF020E1C6FBA
:1002CE00020E17251D6F4D0E1E6F000E1F6F060EB0
:1002DE00206F25DF020E1C6F030E17251D6F550EA6
:0E02EE001E6F000E1F6F070E206F19DF12002B
:1002FC00010E0101226F17C123F1200E246FE1DEE4
:10030C00010E226F1751010F236F200E246FD9DEBF
:10031C00010E226F020E1725236F200E246FD1DEE3
:10032C00010E226F030E1725236F200E246FC9DEDA
:10033C00020E226F17C123F1200E246FC2DE020EB3
:10034C00226F1751010F236F200E246FBADE020E9D
:10035C00226F020E1725236F200E246FB2DE020EC1
:10036C00226F030E1725236F200E246FAADE1200B6
:10037C00010E01011C6F17C11DF1030E1E6F010E42
:10038C001F6F206BCDDE010E1C6F1751010F1D6FFF
:10039C000B0E1E6F010E1F6F010E206FC1DE010EC2
:1003AC001C6F020E17251D6FFB0E1E6F000E1F6FAC
:1003BC00020E206FB5DE010E1C6F030E17251D6F8C
:1003CC006D0E1E6F000E1F6F030E206FA9DE020E46
:1003DC001C6F17C11DF1750E1E6F000E1F6F040EE2
:1003EC00206F9EDE020E1C6F1751010F1D6F5D0EEC
:1003FC001E6F000E1F6F050E206F92DE020E1C6F1B
:10040C00020E17251D6F650E1E6F000E1F6F060E58
:10041C00206F86DE020E1C6F030E17251D6F7D0EDE
:0E042C001E6F000E1F6F070E206F7ADE12008B
:10043A0010D0800E0101176F1AD0C00E176F17D097
:10044A00940E176F14D0D40E176F11D0800E176F39
:10045A000ED001011751010AECE01751020AEDE032
:10046A001751030AEDE01751040AEDE0EFD718051A
:10047A00006E1751002600C017F100C025F1DCDD1F
:10048A0014911B6B1B511925E96E000E1A21EA6E95
:10049A00EE520BE01B511925E96E000E1A21EA6E85
:0E04AA00EECF22F108DE1B2BEDD714811200DD
:1004B8000900F5CFE6FF0006FBE10106F9E11200AD
:1004C80095929590959495969598959A8392839000
:1004D800839A839883968394A2DDA1DDA0DD838629
:1004E80083848382A7DD83929ADD8382A3DD83924E
:1004F80096DD83829FDD839292DD839483829ADDE9
:1005080083928DDD838296DD83928396838A8382AC
:1005180091DD839284DD839A838483828BDD839249
:100528008394838287DD83927ADD838283DD83925D
:10053800838483827FDD839272DD839483827ADD74
:100548008392838A838883868384838273DD8392FC
:0805580066DD010114811200AF
:1005600000018E51010A07E0010E0101256F69DDCE
:10057000010E00018E6F010E0101176F040E186F3E
:0C058000E20E196F000E1A6F58DF120017
:10058C0000018E51030A0BE0010E0101256F53DDB2
:10059C00030E00018E6F010E8F6F010E856F85C0EB
:1005AC0017F1A6DE8FC017F1E3DE8FC017F1E2DD85
:1005BC008FC017F13EDE8FC085F0820E0C6EDD0E03
:1005CC000D6E0D2EFED70C2EFCD700000000000186
:0E05DC008F2B8F51110802E2010E8F6F12005B
:1005EA0000018E51020A0AE0010E0101256F24DD85
:1005FA00020E00018E6F010EB06FB16B010E010188
:10060A00256F1ADD0001B05306E0B12BB151050A7E
:10061A00D8B4B06B06D0B107B151000A02E1010E9D
:10062A00B06F010E0101176FB1C018F1EE0E196F0C
:10063A00000E1A6FFDDE060E0B6E130E0C6EAD0E5B
:10064A000D6E0D2EFED70C2EFCD70B2EFAD70000FE
:04065A00000012008A
:10065E00D0EC03F0FF0E926EC26A0F0EC16E070E43
:10066E00B46E720ED36E29DF0C0E256FE3DC80B0F4
:10067E0004D080B202D06DDF0BD080B004D080A247
:10068E0002D0ACDF05D080A003D080B201D077DFDE
:04069E00EED7FFD7BD
:1007A00010EE15F0FD0E006E010E016EA20EF66E3B
:0E07B000060EF76E000EF86E5CEC02F0120002
:0806A20005071F191F160606CB
:0806AA000C1810010101000011
:0806B2000000000F1F1F1F1FB5
:0806BA00000001031F1F1F1FB8
:0806C2001F1F1E1607000000B7
:0806CA00000000070F0E1C18D0
:0806D2000000000F1F1F1F1F95
:0806DA001F1F030302140402B8
:0806E2001C1C040404080800BC
:0806EA001F17060C10100000A0
:0806F2001F1F010101010000BE
:0806FA00051F1D1D1F1B13014C
:080702001303060C10100000A7
:08070A0010181C080800100083
:0107120001E5
:080713000000000303070C0CB9
:01071B0000DD
:01071C0001DB
:08071D00000001031F1F1F1F54
:08072500150116011201130178
:08072D00130115011601120170
:08073500120113011501160168
:01073D0001BA
:01073E0000BA
:08073F0016011201130115015E
:080747001F07070E0601000068
:08074F001F030301010100007A
:08075700141E1A1A1F1F1310D3
:08075F00131302020400000064
:0807670010180C020211000041
:0C076F0049504E2D55504949435341005C
:0D077B00486F6C61206D617175696E6100E1
:08078800000101071F1F1F1FE4
:080790000000070F1F00101FFD
:0707980000000E1F1F1F1FD0
:020000040030CA
:0E00000000081F1EFF8381FF0FC00FE00F409E
:00000001FF
