:1000000029EF03F00000000000EF00F00000000006
:0A0010000000000000000000F3D71C
:0A001C00210E0D6E0D2EFED712000E
:100026000F0E0C6E470E0D6E0D2EFED70C2EFCD746
:06003600000000001200B2
:06003C00000000001200AC
:10004200010125BF02D0839A01D0838A25BD02D047
:10005200839801D0838825BB02D0839601D0838602
:1000620025B902D0839401D0838415B102D0838054
:1000720001D083908382E1DF839225B702D0839AF5
:1000820001D0838A25B502D0839801D0838825B315
:1000920002D0839601D0838625B102D0839401D009
:1000A200838415B102D0838001D083908382C5DF1F
:0E00B200839215A102D0B6DF01D0AFDF12009D
:0E00C0000101159122C125F1BCDF158112004E
:1000CE0010D0800E0101226F1AD0C00E226F17D0F1
:1000DE00940E226F14D0D40E226F11D0800E226F88
:1000EE000ED001012251010AECE02251020AEDE08C
:1000FE002251030AEDE02251040AEDE0EFD7230569
:10010E00006E2251002600C022F1158100C025F19B
:0E011E0091DF159124C125F18DDF15811200AE
:10012C00080E0101205D25E220C100F00036009090
:10013C0000360090003600900050400F256F7BDF9A
:10014C00216B080E215D0BE221511E25E96E000E7C
:10015C001F21EA6EEECF22F1ADDF212BF2D7020E7A
:10016C00256F69DF1CC122F11DC123F120C124F1CF
:04017C00A8DF1200E6
:10018000010E01011C6F17C11DF13D0E1E6F000E07
:100190001F6F206BCBDF010E1C6F1751010F1D6FFE
:1001A000450E1E6F000E1F6F010E206FBFDF010E88
:1001B0001C6F020E17251D6FE00E1E6F000E1F6FC5
:1001C000020E206FB3DF010E1C6F030E17251D6F8B
:1001D000E80E1E6F000E1F6F030E206FA7DF020ECA
:1001E0001C6F17C11DF1D80E1E6F000E1F6F040E7D
:1001F000206F9CDF020E1C6F1751010F1D6FC80E80
:100200001E6F000E1F6F050E206F90DF020E1C6F19
:10021000020E17251D6FD00E1E6F000E1F6F060EEB
:10022000206F84DF020E1C6F030E17251D6FFE0E5C
:0E0230001E6F000E1F6F070E206F78DF12008A
:10023E00010E01011C6F17C11DF18E0E1E6F000EF7
:10024E001F6F206B6CDF010E1C6F1751010F1D6F9E
:10025E007E0E1E6F000E1F6F010E206F60DF010EEF
:10026E001C6F020E17251D6F860E1E6F000E1F6F60
:10027E00020E206F54DF010E1C6F030E17251D6F2B
:10028E002D0E1E6F000E1F6F030E206F48DF020E25
:10029E001C6F17C11DF1350E1E6F000E1F6F040E61
:1002AE00206F3DDF020E1C6F1751010F1D6F250EC3
:1002BE001E6F000E1F6F050E206F31DF020E1C6FBA
:1002CE00020E17251D6F150E1E6F000E1F6F060EE8
:1002DE00206F25DF020E1C6F030E17251D6F1D0EDE
:0E02EE001E6F000E1F6F070E206F19DF12002B
:1002FC00010E0101226F17C123F1200E246FE1DEE4
:10030C00010E226F1751010F236F200E246FD9DEBF
:10031C00010E226F020E1725236F200E246FD1DEE3
:10032C00010E226F030E1725236F200E246FC9DEDA
:10033C00020E226F17C123F1200E246FC2DE020EB3
:10034C00226F1751010F236F200E246FBADE020E9D
:10035C00226F020E1725236F200E246FB2DE020EC1
:10036C00226F030E1725236F200E246FAADE1200B6
:10037C00010E01011C6F17C11DF15E0E1E6F000EE8
:10038C001F6F206BCDDE010E1C6F1751010F1D6FFF
:10039C00570E1E6F000E1F6F010E206FC1DE010E77
:1003AC001C6F020E17251D6F660E1E6F000E1F6F41
:1003BC00020E206FB5DE010E1C6F030E17251D6F8C
:1003CC00760E1E6F000E1F6F030E206FA9DE020E3D
:1003DC001C6F17C11DF16E0E1E6F000E1F6F040EE9
:1003EC00206F9EDE020E1C6F1751010F1D6F960EB3
:1003FC001E6F000E1F6F050E206F92DE020E1C6F1B
:10040C00020E17251D6F9E0E1E6F000E1F6F060E1F
:10041C00206F86DE020E1C6F030E17251D6F4E0E0D
:0E042C001E6F000E1F6F070E206F7ADE12008B
:10043A0010D0800E0101176F1AD0C00E176F17D097
:10044A00940E176F14D0D40E176F11D0800E176F39
:10045A000ED001011751010AECE01751020AEDE032
:10046A001751030AEDE01751040AEDE0EFD718051A
:10047A00006E1751002600C017F100C025F1DCDD1F
:10048A0015911B6B1B511925E96E000E1A21EA6E94
:10049A00EE520BE01B511925E96E000E1A21EA6E85
:0E04AA00EECF22F108DE1B2BEDD715811200DC
:1004B8000900F5CFE6FF0006FBE10106F9E11200AD
:1004C80095929590959495969598959A8392839000
:1004D800839A839883968394A2DDA1DDA0DD838629
:1004E80083848382A7DD83929ADD8382A3DD83924E
:1004F80096DD83829FDD839292DD839483829ADDE9
:1005080083928DDD838296DD83928396838A8382AC
:1005180091DD839284DD839A838483828BDD839249
:100528008394838287DD83927ADD838283DD83925D
:10053800838483827FDD839272DD839483827ADD74
:100548008392838A838883868384838273DD8392FC
:0805580066DD010115811200AE
:100560005650010A06E0010E0101256F6ADD010EF9
:10057000566E0101010E176F040E186F060E196FEB
:08058000010E1A6F5ADF120090
:100588005650030A0BE0010E0101256F56DD030EDC
:10059800566E010E4D6E010E0001F06FF0C017F19E
:1005A800A9DE4DC017F1E6DE4DC017F1E5DD4DC0FF
:1005B80017F141DE4DC0F0F0820E0C6EDD0E0D6EAF
:1005C8000D2EFED70C2EFCD7000000004D2A4D50F2
:0A05D800110802E2010E4D6E120040
:1005E2005650020A0AE0010E0101256F29DD020EB2
:1005F200566E010E0001B66FB76B010E0101256F39
:100602001FDD0001B65306E0B72BB751050AD8B477
:10061200B66B06D0B707B751000A02E1010EB66FFA
:10062200010E0101176FB7C018F1F10E196F000E1C
:100632001A6F02DF020E0B6E040E0C6EBA0E0D6EF6
:100642000D2EFED70C2EFCD70B2EFAD7000012006F
:10065200C7EC03F0FF0E926EC26A0F0EC16E070E58
:10066200B46E31DF0C0E256FEBDC06D078DF0DD0D7
:10067200B7DF0BD088DF09D08050000AF7E0805046
:0E068200010AF6E08050020AF5E0EFD7FFD73C
:10078E0010EE15F0FD0E006E010E016E900EF66E5F
:0E079E00060EF76E000EF86E5CEC02F0120014
:080690001F1F03030214040202
:080698001C1C04040408080006
:0806A0001F1F1E1607000000D9
:0806A80005071F191F160606C5
:0806B0000C181001010100000B
:0806B800000000070F0E1C18E2
:0806C0000000000F1F1F1F1FA7
:0106C8000130
:0806C90010181C0808001000C5
:0106D1000028
:0706D20000000E1F1F1F1F97
:0806D9000000070F1F00101FB5
:0806E100000101071F1F1F1F8C
:0806E9001303060C10100000C1
:0806F100051F1D1D1F1B130155
:0806F9000000000F1F1F1F1F6E
:08070100000001031F1F1F1F70
:080709000000000303070C0CC3
:080711001F17060C1010000078
:080719001F1F01010101000096
:0807210016011301140112017D
:08072900120116011301140175
:0107310001C6
:0107320000C6
:0807330014011201160113016B
:08073B00130114011201160163
:080743001F07070E060100006C
:08074B001F030301010100007E
:08075300131302020400000070
:08075B00000001031F1F1F1F16
:08076300141E1A1A1F1F1310C7
:01076B00018C
:0D076C00486F6C61206D617175696E6100F0
:0807790010180C02021100002F
:0C07810049504E2D55504949435341004A
:020000040030CA
:0E000000000C1F1EFF8381FF0FC00FE00F409A
:00000001FF
