:020000040000FA
:10000000926A936A946A956A966AC26A0F0EC16E82
:10001000070EB46EFF0E926E000E936E0A6A37EFF3
:1000200000F0F9263F0C060C5B0C4F0C660C6D0CB7
:100030007D0C070C7F0C670C770C7C0C390C5E0C6C
:10004000790C710CF9260E0C790C6D0C3E0C6D0CB4
:10005000750C300C780CE80E0C6E680E0B6E000000
:100060000B2E2FEF00F00C2E2DEF00F0120080B2BF
:100070003CEF00F041EF00F080B078EF00F068EF67
:1000800000F080B056EF00F046EF00F00A6A0A5028
:1000900011EC00F0816E2FEC00F00A2A0A2A0A50B7
:1000A0001408D8A447EF00F037EF00F00A6A0A50AE
:1000B00011EC00F0816E2FEC00F00A2A0A2A0A2ABD
:1000C0000A2A0A502008D8A457EF00F037EF00F0B2
:1000D0000A6A0A5022EC00F0816E2FEC00F00A2A26
:1000E0000A2A0A501008D8A469EF00F037EF00F090
:0800F0003F0E816E37EF00F0B6
:0200F800000006
:020000040030CA
:0100000020DF
:0100010008F6
:0100020038C5
:010003001EDE
:010005008179
:010006008178
:010008000FE8
:010009008076
:01000A000FE6
:01000B00A054
:01000C000FE4
:01000D0040B2
:00000001FF
