:020000040000FA
:10000000926A936A946A956A966AC26A0F0EC16E82
:10001000070EB46EFF0E926E000E936E6AEF00F044
:10002000E80E0C6EF20E0B6E00000B2EFDD70C2EA0
:10003000F9D71200F9263F0C060C5B0C4F0C660C2E
:100040006D0C7D0C070C7F0C670C770C7C0C390C4D
:100050005E0C790C710CF9260E0C790C6D0C3E0CB3
:100060006D0C750C300C780C0A6A0A501AEC00F012
:10007000816E14EC00F00A2A0A2A0A501408D8A447
:1000800035EF00F06AEF00F00A6A0A501AEC00F04F
:10009000816E14EC00F00A2A0A2A0A2A0A2A0A5057
:1000A0002008D8A445EF00F071EF00F00A6A0A506A
:1000B0002BEC00F0816E14EC00F00A2A0A2A0A5098
:1000C0001008D8A457EF00F078EF00F0000E816E12
:1000D0007FEF00F080500008D8A471EF00F034EFFB
:1000E00000F080500108D8A478EF00F044EF00F051
:1000F00080500208D8A47FEF00F056EF00F0805047
:0C0100000308D8A46AEF00F066EF00F0DE
:02010C000000F1
:020000040030CA
:0100000020DF
:0100010008F6
:0100020038C5
:010003001EDE
:010005008179
:010006008178
:010008000FE8
:010009008076
:01000A000FE6
:01000B00A054
:01000C000FE4
:01000D0040B2
:00000001FF
